{
  "contractName": "Dappazon",
  "abi": [
    {
      "inputs": [],
      "stateMutability": "nonpayable",
      "type": "constructor"
    },
    {
      "anonymous": false,
      "inputs": [
        {
          "indexed": false,
          "internalType": "address",
          "name": "buyer",
          "type": "address"
        },
        {
          "indexed": false,
          "internalType": "uint256",
          "name": "orderID",
          "type": "uint256"
        },
        {
          "indexed": false,
          "internalType": "uint256",
          "name": "cost",
          "type": "uint256"
        },
        {
          "indexed": false,
          "internalType": "uint256",
          "name": "quantity",
          "type": "uint256"
        }
      ],
      "name": "Buy",
      "type": "event"
    },
    {
      "anonymous": false,
      "inputs": [
        {
          "indexed": false,
          "internalType": "string",
          "name": "name",
          "type": "string"
        },
        {
          "indexed": false,
          "internalType": "uint256",
          "name": "cost",
          "type": "uint256"
        },
        {
          "indexed": false,
          "internalType": "uint256",
          "name": "quantity",
          "type": "uint256"
        }
      ],
      "name": "ItemListing",
      "type": "event"
    },
    {
      "inputs": [
        {
          "internalType": "uint256",
          "name": "",
          "type": "uint256"
        }
      ],
      "name": "items",
      "outputs": [
        {
          "internalType": "uint256",
          "name": "id",
          "type": "uint256"
        },
        {
          "internalType": "string",
          "name": "name",
          "type": "string"
        },
        {
          "internalType": "string",
          "name": "category",
          "type": "string"
        },
        {
          "internalType": "string",
          "name": "image",
          "type": "string"
        },
        {
          "internalType": "uint256",
          "name": "cost",
          "type": "uint256"
        },
        {
          "internalType": "uint256",
          "name": "rating",
          "type": "uint256"
        },
        {
          "internalType": "uint256",
          "name": "stock",
          "type": "uint256"
        }
      ],
      "stateMutability": "view",
      "type": "function"
    },
    {
      "inputs": [
        {
          "internalType": "address",
          "name": "",
          "type": "address"
        }
      ],
      "name": "orderCount",
      "outputs": [
        {
          "internalType": "uint256",
          "name": "",
          "type": "uint256"
        }
      ],
      "stateMutability": "view",
      "type": "function"
    },
    {
      "inputs": [
        {
          "internalType": "address",
          "name": "",
          "type": "address"
        },
        {
          "internalType": "uint256",
          "name": "",
          "type": "uint256"
        }
      ],
      "name": "orders",
      "outputs": [
        {
          "internalType": "uint256",
          "name": "time",
          "type": "uint256"
        },
        {
          "components": [
            {
              "internalType": "uint256",
              "name": "id",
              "type": "uint256"
            },
            {
              "internalType": "string",
              "name": "name",
              "type": "string"
            },
            {
              "internalType": "string",
              "name": "category",
              "type": "string"
            },
            {
              "internalType": "string",
              "name": "image",
              "type": "string"
            },
            {
              "internalType": "uint256",
              "name": "cost",
              "type": "uint256"
            },
            {
              "internalType": "uint256",
              "name": "rating",
              "type": "uint256"
            },
            {
              "internalType": "uint256",
              "name": "stock",
              "type": "uint256"
            }
          ],
          "internalType": "struct Dappazon.Item",
          "name": "item",
          "type": "tuple"
        }
      ],
      "stateMutability": "view",
      "type": "function"
    },
    {
      "inputs": [],
      "name": "owner",
      "outputs": [
        {
          "internalType": "address",
          "name": "",
          "type": "address"
        }
      ],
      "stateMutability": "view",
      "type": "function"
    },
    {
      "inputs": [
        {
          "internalType": "uint256",
          "name": "_id",
          "type": "uint256"
        },
        {
          "internalType": "string",
          "name": "_name",
          "type": "string"
        },
        {
          "internalType": "string",
          "name": "_category",
          "type": "string"
        },
        {
          "internalType": "string",
          "name": "_image",
          "type": "string"
        },
        {
          "internalType": "uint256",
          "name": "_cost",
          "type": "uint256"
        },
        {
          "internalType": "uint256",
          "name": "_rating",
          "type": "uint256"
        },
        {
          "internalType": "uint256",
          "name": "_stock",
          "type": "uint256"
        }
      ],
      "name": "list",
      "outputs": [],
      "stateMutability": "nonpayable",
      "type": "function"
    },
    {
      "inputs": [
        {
          "internalType": "uint256",
          "name": "_id",
          "type": "uint256"
        }
      ],
      "name": "buy",
      "outputs": [],
      "stateMutability": "payable",
      "type": "function"
    },
    {
      "inputs": [],
      "name": "withdraw",
      "outputs": [],
      "stateMutability": "nonpayable",
      "type": "function"
    }
  ],
  "bytecode": "0x608060405234801561000f575f80fd5b50335f806101000a81548173ffffffffffffffffffffffffffffffffffffffff021916908373ffffffffffffffffffffffffffffffffffffffff1602179055506118f68061005c5f395ff3fe60806040526004361061006f575f3560e01c80638da5cb5b1161004d5780638da5cb5b14610102578063bfb231d21461012c578063d96a094a1461016e578063eea8a7e81461018a5761006f565b80633ccfd60b14610073578063713d856b14610089578063793b8c6d146100c5575b5f80fd5b34801561007e575f80fd5b506100876101b2565b005b348015610094575f80fd5b506100af60048036038101906100aa9190610db7565b61030a565b6040516100bc9190610dfa565b60405180910390f35b3480156100d0575f80fd5b506100eb60048036038101906100e69190610e3d565b61031f565b6040516100f9929190610fbb565b60405180910390f35b34801561010d575f80fd5b5061011661052b565b6040516101239190610ff8565b60405180910390f35b348015610137575f80fd5b50610152600480360381019061014d9190611011565b61054e565b6040516101659796959493929190611084565b60405180910390f35b61018860048036038101906101839190611011565b61071e565b005b348015610195575f80fd5b506101b060048036038101906101ab9190611232565b610bc7565b005b5f8054906101000a900473ffffffffffffffffffffffffffffffffffffffff1673ffffffffffffffffffffffffffffffffffffffff163373ffffffffffffffffffffffffffffffffffffffff161461023f576040517f08c379a00000000000000000000000000000000000000000000000000000000081526004016102369061136d565b60405180910390fd5b5f805f9054906101000a900473ffffffffffffffffffffffffffffffffffffffff1673ffffffffffffffffffffffffffffffffffffffff1647604051610284906113b8565b5f6040518083038185875af1925050503d805f81146102be576040519150601f19603f3d011682016040523d82523d5f602084013e6102c3565b606091505b5050905080610307576040517f08c379a00000000000000000000000000000000000000000000000000000000081526004016102fe90611416565b60405180910390fd5b50565b6002602052805f5260405f205f915090505481565b6003602052815f5260405f20602052805f5260405f205f9150915050805f015490806001016040518060e00160405290815f820154815260200160018201805461036890611461565b80601f016020809104026020016040519081016040528092919081815260200182805461039490611461565b80156103df5780601f106103b6576101008083540402835291602001916103df565b820191905f5260205f20905b8154815290600101906020018083116103c257829003601f168201915b505050505081526020016002820180546103f890611461565b80601f016020809104026020016040519081016040528092919081815260200182805461042490611461565b801561046f5780601f106104465761010080835404028352916020019161046f565b820191905f5260205f20905b81548152906001019060200180831161045257829003601f168201915b5050505050815260200160038201805461048890611461565b80601f01602080910402602001604051908101604052809291908181526020018280546104b490611461565b80156104ff5780601f106104d6576101008083540402835291602001916104ff565b820191905f5260205f20905b8154815290600101906020018083116104e257829003601f168201915b505050505081526020016004820154815260200160058201548152602001600682015481525050905082565b5f8054906101000a900473ffffffffffffffffffffffffffffffffffffffff1681565b6001602052805f5260405f205f91509050805f01549080600101805461057390611461565b80601f016020809104026020016040519081016040528092919081815260200182805461059f90611461565b80156105ea5780601f106105c1576101008083540402835291602001916105ea565b820191905f5260205f20905b8154815290600101906020018083116105cd57829003601f168201915b5050505050908060020180546105ff90611461565b80601f016020809104026020016040519081016040528092919081815260200182805461062b90611461565b80156106765780601f1061064d57610100808354040283529160200191610676565b820191905f5260205f20905b81548152906001019060200180831161065957829003601f168201915b50505050509080600301805461068b90611461565b80601f01602080910402602001604051908101604052809291908181526020018280546106b790611461565b80156107025780601f106106d957610100808354040283529160200191610702565b820191905f5260205f20905b8154815290600101906020018083116106e557829003601f168201915b5050505050908060040154908060050154908060060154905087565b5f60015f8381526020019081526020015f206006015411610774576040517f08c379a000000000000000000000000000000000000000000000000000000000815260040161076b906114db565b60405180910390fd5b60015f8281526020019081526020015f20600401543410156107cb576040517f08c379a00000000000000000000000000000000000000000000000000000000081526004016107c290611543565b60405180910390fd5b5f60015f8381526020019081526020015f206040518060e00160405290815f820154815260200160018201805461080190611461565b80601f016020809104026020016040519081016040528092919081815260200182805461082d90611461565b80156108785780601f1061084f57610100808354040283529160200191610878565b820191905f5260205f20905b81548152906001019060200180831161085b57829003601f168201915b5050505050815260200160028201805461089190611461565b80601f01602080910402602001604051908101604052809291908181526020018280546108bd90611461565b80156109085780601f106108df57610100808354040283529160200191610908565b820191905f5260205f20905b8154815290600101906020018083116108eb57829003601f168201915b5050505050815260200160038201805461092190611461565b80601f016020809104026020016040519081016040528092919081815260200182805461094d90611461565b80156109985780601f1061096f57610100808354040283529160200191610998565b820191905f5260205f20905b81548152906001019060200180831161097b57829003601f168201915b50505050508152602001600482015481526020016005820154815260200160068201548152505090505f604051806040016040528042815260200183815250905060025f3373ffffffffffffffffffffffffffffffffffffffff1673ffffffffffffffffffffffffffffffffffffffff1681526020019081526020015f205f815480929190610a269061158e565b91905055508060035f3373ffffffffffffffffffffffffffffffffffffffff1673ffffffffffffffffffffffffffffffffffffffff1681526020019081526020015f205f60025f3373ffffffffffffffffffffffffffffffffffffffff1673ffffffffffffffffffffffffffffffffffffffff1681526020019081526020015f205481526020019081526020015f205f820151815f01556020820151816001015f820151815f01556020820151816001019081610ae39190611772565b506040820151816002019081610af99190611772565b506060820151816003019081610b0f9190611772565b506080820151816004015560a0820151816005015560c0820151816006015550509050505f8260c0015190507fbeae048c6d270d9469f86cf6e8fedda3c60ad770f16c24c9fc131c8e9a09101d3360025f3373ffffffffffffffffffffffffffffffffffffffff1673ffffffffffffffffffffffffffffffffffffffff1681526020019081526020015f2054856080015184604051610bb19493929190611841565b60405180910390a1610bc16101b2565b50505050565b5f8054906101000a900473ffffffffffffffffffffffffffffffffffffffff1673ffffffffffffffffffffffffffffffffffffffff163373ffffffffffffffffffffffffffffffffffffffff1614610c54576040517f08c379a0000000000000000000000000000000000000000000000000000000008152600401610c4b9061136d565b60405180910390fd5b5f6040518060e001604052808981526020018881526020018781526020018681526020018581526020018481526020018381525090508060015f8a81526020019081526020015f205f820151815f01556020820151816001019081610cb99190611772565b506040820151816002019081610ccf9190611772565b506060820151816003019081610ce59190611772565b506080820151816004015560a0820151816005015560c082015181600601559050507f584ea5c975ac5694aa1d3a6a9e9b9bf1150957db314058cebef812c06bb75b99878584604051610d3a93929190611884565b60405180910390a15050505050505050565b5f604051905090565b5f80fd5b5f80fd5b5f73ffffffffffffffffffffffffffffffffffffffff82169050919050565b5f610d8682610d5d565b9050919050565b610d9681610d7c565b8114610da0575f80fd5b50565b5f81359050610db181610d8d565b92915050565b5f60208284031215610dcc57610dcb610d55565b5b5f610dd984828501610da3565b91505092915050565b5f819050919050565b610df481610de2565b82525050565b5f602082019050610e0d5f830184610deb565b92915050565b610e1c81610de2565b8114610e26575f80fd5b50565b5f81359050610e3781610e13565b92915050565b5f8060408385031215610e5357610e52610d55565b5b5f610e6085828601610da3565b9250506020610e7185828601610e29565b9150509250929050565b610e8481610de2565b82525050565b5f81519050919050565b5f82825260208201905092915050565b5f5b83811015610ec1578082015181840152602081019050610ea6565b5f8484015250505050565b5f601f19601f8301169050919050565b5f610ee682610e8a565b610ef08185610e94565b9350610f00818560208601610ea4565b610f0981610ecc565b840191505092915050565b5f60e083015f830151610f295f860182610e7b565b5060208301518482036020860152610f418282610edc565b91505060408301518482036040860152610f5b8282610edc565b91505060608301518482036060860152610f758282610edc565b9150506080830151610f8a6080860182610e7b565b5060a0830151610f9d60a0860182610e7b565b5060c0830151610fb060c0860182610e7b565b508091505092915050565b5f604082019050610fce5f830185610deb565b8181036020830152610fe08184610f14565b90509392505050565b610ff281610d7c565b82525050565b5f60208201905061100b5f830184610fe9565b92915050565b5f6020828403121561102657611025610d55565b5b5f61103384828501610e29565b91505092915050565b5f82825260208201905092915050565b5f61105682610e8a565b611060818561103c565b9350611070818560208601610ea4565b61107981610ecc565b840191505092915050565b5f60e0820190506110975f83018a610deb565b81810360208301526110a9818961104c565b905081810360408301526110bd818861104c565b905081810360608301526110d1818761104c565b90506110e06080830186610deb565b6110ed60a0830185610deb565b6110fa60c0830184610deb565b98975050505050505050565b5f80fd5b5f80fd5b7f4e487b71000000000000000000000000000000000000000000000000000000005f52604160045260245ffd5b61114482610ecc565b810181811067ffffffffffffffff821117156111635761116261110e565b5b80604052505050565b5f611175610d4c565b9050611181828261113b565b919050565b5f67ffffffffffffffff8211156111a05761119f61110e565b5b6111a982610ecc565b9050602081019050919050565b828183375f83830152505050565b5f6111d66111d184611186565b61116c565b9050828152602081018484840111156111f2576111f161110a565b5b6111fd8482856111b6565b509392505050565b5f82601f83011261121957611218611106565b5b81356112298482602086016111c4565b91505092915050565b5f805f805f805f60e0888a03121561124d5761124c610d55565b5b5f61125a8a828b01610e29565b975050602088013567ffffffffffffffff81111561127b5761127a610d59565b5b6112878a828b01611205565b965050604088013567ffffffffffffffff8111156112a8576112a7610d59565b5b6112b48a828b01611205565b955050606088013567ffffffffffffffff8111156112d5576112d4610d59565b5b6112e18a828b01611205565b94505060806112f28a828b01610e29565b93505060a06113038a828b01610e29565b92505060c06113148a828b01610e29565b91505092959891949750929550565b7f4f6e6c79206f776e657220616c6c6f77656400000000000000000000000000005f82015250565b5f61135760128361103c565b915061136282611323565b602082019050919050565b5f6020820190508181035f8301526113848161134b565b9050919050565b5f81905092915050565b50565b5f6113a35f8361138b565b91506113ae82611395565b5f82019050919050565b5f6113c282611398565b9150819050919050565b7f5769746864726177616c206661696c65640000000000000000000000000000005f82015250565b5f61140060118361103c565b915061140b826113cc565b602082019050919050565b5f6020820190508181035f83015261142d816113f4565b9050919050565b7f4e487b71000000000000000000000000000000000000000000000000000000005f52602260045260245ffd5b5f600282049050600182168061147857607f821691505b60208210810361148b5761148a611434565b5b50919050565b7f4974656d73206f7574206f662073746f636b00000000000000000000000000005f82015250565b5f6114c560128361103c565b91506114d082611491565b602082019050919050565b5f6020820190508181035f8301526114f2816114b9565b9050919050565b7f496e73756666696369656e742066756e647300000000000000000000000000005f82015250565b5f61152d60128361103c565b9150611538826114f9565b602082019050919050565b5f6020820190508181035f83015261155a81611521565b9050919050565b7f4e487b71000000000000000000000000000000000000000000000000000000005f52601160045260245ffd5b5f61159882610de2565b91507fffffffffffffffffffffffffffffffffffffffffffffffffffffffffffffffff82036115ca576115c9611561565b5b600182019050919050565b5f819050815f5260205f209050919050565b5f6020601f8301049050919050565b5f82821b905092915050565b5f600883026116317fffffffffffffffffffffffffffffffffffffffffffffffffffffffffffffffff826115f6565b61163b86836115f6565b95508019841693508086168417925050509392505050565b5f819050919050565b5f61167661167161166c84610de2565b611653565b610de2565b9050919050565b5f819050919050565b61168f8361165c565b6116a361169b8261167d565b848454611602565b825550505050565b5f90565b6116b76116ab565b6116c2818484611686565b505050565b5b818110156116e5576116da5f826116af565b6001810190506116c8565b5050565b601f82111561172a576116fb816115d5565b611704846115e7565b81016020851015611713578190505b61172761171f856115e7565b8301826116c7565b50505b505050565b5f82821c905092915050565b5f61174a5f198460080261172f565b1980831691505092915050565b5f611762838361173b565b9150826002028217905092915050565b61177b82610e8a565b67ffffffffffffffff8111156117945761179361110e565b5b61179e8254611461565b6117a98282856116e9565b5f60209050601f8311600181146117da575f84156117c8578287015190505b6117d28582611757565b865550611839565b601f1984166117e8866115d5565b5f5b8281101561180f578489015182556001820191506020850194506020810190506117ea565b8683101561182c5784890151611828601f89168261173b565b8355505b6001600288020188555050505b505050505050565b5f6080820190506118545f830187610fe9565b6118616020830186610deb565b61186e6040830185610deb565b61187b6060830184610deb565b95945050505050565b5f6060820190508181035f83015261189c818661104c565b90506118ab6020830185610deb565b6118b86040830184610deb565b94935050505056fea26469706673582212203fd5636fb5a6cf6021b66217ec0a4e049edb8fdf568a00ea158714148debf9bc64736f6c63430008150033",
  "immutableReferences": {},
  "source": "// SPDX-License-Identifier: UNLICENSED\r\npragma solidity ^0.8.9;\r\n\r\ncontract Dappazon {\r\n    address public owner;\r\n\r\n    struct Item {\r\n        uint256 id;\r\n        string name;\r\n        string category;\r\n        string image;\r\n        uint256 cost;\r\n        uint256 rating;\r\n        uint256 stock;\r\n    }\r\n\r\n    struct Order {\r\n        uint256 time;\r\n        Item item;\r\n    }\r\n    \r\n    mapping (uint256 => Item) public items;\r\n    mapping (address => uint256) public orderCount;\r\n    mapping (address => mapping (uint256 => Order)) public orders;\r\n\r\n    event ItemListing(string name, uint256 cost, uint256 quantity);\r\n    event Buy(address buyer, uint256 orderID, uint256 cost, uint256 quantity);\r\n\r\n    modifier onlyOwner {\r\n        require(msg.sender == owner, \"Only owner allowed\");\r\n        _;\r\n    }\r\n\r\n    constructor() {\r\n        owner = msg.sender;\r\n    }\r\n\r\n    function list(\r\n        uint256 _id,\r\n        string memory _name,\r\n        string memory _category,\r\n        string memory _image,\r\n        uint256 _cost,\r\n        uint256 _rating,\r\n        uint256 _stock\r\n    ) public onlyOwner {\r\n        Item memory newItem = Item(_id, _name, _category, _image, _cost, _rating, _stock);\r\n        items[_id] = newItem;\r\n\r\n        emit ItemListing(_name, _cost, _stock);\r\n    } \r\n\r\n    function buy(uint256 _id) public payable {\r\n        require(items[_id].stock > 0, \"Items out of stock\");\r\n        require(msg.value >= items[_id].cost, \"Insufficient funds\");\r\n\r\n        Item memory item = items[_id];\r\n        Order memory order = Order(block.timestamp, item);\r\n        orderCount[msg.sender]++;\r\n        orders[msg.sender][orderCount[msg.sender]] = order;\r\n\r\n        // Calculate the quantity based on the stock of the item\r\n        uint256 quantity = item.stock;\r\n\r\n        emit Buy(msg.sender, orderCount[msg.sender], item.cost, quantity);\r\n\r\n        // Withdraw funds  \r\n        withdraw();\r\n    }\r\n\r\n    function withdraw() public onlyOwner {\r\n        (bool success,) = owner.call{value: address(this).balance}(\"\");\r\n        require(success, \"Withdrawal failed\");\r\n    }\r\n}\r\n",
  "sourcePath": "C:\\Users\\IEBC\\my_truffle_project\\contracts\\Mycontractdapp.sol",
  "compiler": {
    "name": "solc",
    "version": "0.8.21+commit.d9974bed.Emscripten.clang"
  },
  "schemaVersion": "3.4.16",
  "updatedAt": "2024-05-15T08:40:25.533Z",
  "devdoc": {
    "kind": "dev",
    "methods": {},
    "version": 1
  },
  "userdoc": {
    "kind": "user",
    "methods": {},
    "version": 1
  }
}